:020000040800F2
:10000000401A002089010008290200082B0200087C
:100010002D0200082F020008310200080000000035
:100020000000000000000000000000003302000893
:1000300035020008000000008102000839020008B3
:100040003B0200083B0200083B0200083B0200089C
:100050003B0200083B0200083B0200083B0200088C
:100060003B0200083B0200083B0200083B0200087C
:100070003B0200083B0200083B0200083B0200086C
:100080003B0200083B0200083B0200083B0200085C
:100090003B0200083B0200083B0200083B0200084C
:1000A0003B0200083B0200083B0200083B0200083C
:1000B0003B0200083B0200083B0200083B0200082C
:1000C0003B0200083B0200083B0200083B0200081C
:1000D0003B0200083B0200083B0200083B0200080C
:1000E0003B0200083B0200083B02000800F002F857
:1000F00000F03AF80AA090E8000C82448344AAF188
:100100000107DA4501D100F02FF8AFF2090EBAE885
:100110000F0013F0010F18BFFB1A43F0010318473B
:1001200094170000B4170000103A24BF78C878C1B3
:10013000FAD8520724BF30C830C144BF04680C60ED
:10014000704700000023002400250026103A28BF35
:1001500078C1FBD8520728BF30C148BF0B60704739
:100160001FB51FBD10B510BD00F08FFE1146FFF783
:10017000F7FF01F054FB00F0ADFE03B4FFF7F2FF10
:1001800003BC00F0B5FE000072B61C48004772B612
:100190001B481C4901F1040101604FF0E0201A499D
:1001A000C0F8081D19481849096801604FF0E0209F
:1001B0004EF65F2141614FF0070101614FF00001F0
:1001C000C0F8181D4FF07F41C0F81C1D1049C0F841
:1001D000201D70470F4810490E4A104B7047FEE72C
:1001E000FEE701B5BDE80140704701B500F092F8A7
:1001F000BDE801407047FEE7FEE70000ED000008A3
:1002000048000020401A0020000F00085000002085
:100210000000FF4040100020401600204012002047
:100220000948804709480047FEE7FEE7FEE7FEE78A
:10023000FEE7FEE7FEE7FEE7FEE7FEE704480549C6
:10024000054A064B70470000E5140008ED00000861
:1002500040100020401A00204012002040160020CC
:100260004FF000002A4A106062B64FF080504FF005
:10027000E021C1F8040DBFF34F8FBFF36F8FFEE78E
:1002800040F25400C2F2000040F25802C2F20002F2
:100290004FF00003016881B10360EFF3098C2CE992
:1002A000F00F40F2AC04C2F200044CF804ED2568F3
:1002B000C1F808C00DB18D61236072B61168A1B19B
:1002C000016062B64F6840F2AC04C2F200048D696E
:1002D00007F101074F602560D1F808C05CF804EB16
:1002E000BCE8F00F8CF30988704772B611680160A2
:1002F00031B9BFF34F8F30BFBFF36F8F62B6F4E7F2
:100300004FF000674FF0E028C8F8047D62B6D9E7E7
:100310007000002040F27C01C2F20001086800F188
:100320000100086040F2AC03C2F200031A6852B147
:10033000A2F101021A6032B940F28003C2F2000356
:100340004FF00100186040F28C01C2F20001086811
:1003500002683AB140F29003C2F200034FF001028A
:100360001A600EE000F1040040F28803C2F20003BC
:100370001A68904204D140F28403C2F20003186864
:10038000086040F28003C2F200031A682AB940F202
:100390009001C2F20001086868B301B540F2900113
:1003A000C2F20001086808B100F0FEFA40F28003D2
:1003B000C2F200031A68E2B100F0C8FA40F270001D
:1003C000C2F200000168A1B940F25400C2F200007C
:1003D000016840F25802C2F2000213684EF604505F
:1003E000CEF2000040F20002C1F20002994200D0B9
:1003F0000260BDE80140BFF34F8F704710B500F0B9
:1004000035F800F0E1FA07480021016041608160A1
:10041000C16001614161016241628162C1628161C9
:10042000C16110BD1800002070B50D4C20684FF060
:10043000F03510F10F3F08D02560FFF7A8FEFFF759
:10044000DDFF08480168491C016025600648006816
:1004500001F0EEF900202060BDE87040FFF700BF1A
:100460004C000020700000204800002070B50A4CAD
:1004700000252020256065602561C4E905508021A4
:10048000064800F0B6FCA560E560E5612562606A9B
:1004900040F08070606270BD54000020280A002087
:1004A00010B50246EFF3108172B617480468002CAD
:1004B00006D000BFEFF30580144B1B68034303D045
:1004C00081F31088132010BD11488442F8D0B2B1D6
:1004D00010480368002BF3D1042323630123A36393
:1004E0000023C4F88430E2640268521C026081F385
:1004F0001088204600F068F9D4F8840010BD81F31C
:100500001088002010BD0000540000204C00002086
:10051000280B0020700000202DE9FF4F87B0070056
:10052000DDE919B0DDE9145ADDF858904FF0000408
:100530003ED0B4283CD1EFF31080434972B60A682C
:10054000521C0A6080F310884048DFF804C1002282
:10055000066805EB0A001346DCF800C0401E19E0EF
:10056000B74219D0012A17D0D6F80C80C646A84544
:1005700005D8D6F81080A84501D900250122864566
:1005800005D8D6F81080804501D900250122D6F87B
:1005900088605B1C6345E3D3EFF310800A6872B692
:1005A000521E0A6080F3108800F0EAF8B74201D1C9
:1005B0000E2444E035B1099820B1BAF1C80F03D236
:1005C00005243CE003243AE0B9F1200F01D30F24C5
:1005D00035E01799494501D9182430E0BBF1010FE6
:1005E00001D910242BE01B481B4A01681B4891428B
:1005F00002D100BF4FF01304EFF30581026842EA15
:100600000102002A0AD000BFEFF30581006840EA2A
:100610000100B0F1F03F01D2132410E07CB9DDE914
:10062000171203A8CDF8089080E80608CDE9005A13
:1006300008AC384694E80E0000F012F804460BB0FF
:100640002046BDE8F08F0000700000205C00002014
:100650006000002054000020280B00204C000020E7
:100660002DE9FF5F04460EA8DDE9119890E8A0048B
:1006700093460026EF223946284600F0B2FBB4210B
:10068000204600F0B6FB0198C4F844B0A06203987D
:10069000C4F82CA0C4F894A0E560A064C4E905786F
:1006A0002020C4F81C80C4F89C00E819C4F83C90D1
:1006B000401EC4F898902061032020632848C4E9B4
:1006C00015042849204600F0C1F9EFF310802649AF
:1006D000264B216026491A6872B60AB30968D1F818
:1006E0008C50C1F88C40C5F88840C4E922152149D6
:1006F000521C1A600A68521C0A60139A012A15D00B
:1007000080F31088EFF310800A6872B6521E0A60F8
:1007100080F3108800F034F804B00020BDE8F09FAA
:100720000C60C4F88840C4F88C40E0E7EFF3058122
:10073000114A126842EA0102B2F1F03F06D30F49B2
:100740000D6825B1EE6BE96AE96300E0002580F3EE
:100750001088204600F0D0F9002DDDD0EE63DBE7F5
:10076000150C00088D0A000844524854600000200F
:100770005C000020700000204C0000205800002089
:100780000D480068002815D10C4801680C48006825
:1007900081420FD00B494FF080500860EFF3058085
:1007A000002807D1EFF3108010F0010F72B662B687
:1007B00000D072B670470000700000205400002086
:1007C0005800002004ED00E02DE9F05F0546564892
:1007D000EFF31084066872B6B5420AD1E86C28B10E
:1007E000401C03D005F14C0000F02EFA4F49E86997
:1007F00008604F4A1068401E1060A86BDFF8349103
:10080000012870D14FF0000CC5F838C02F6ADFF80E
:1008100028A1DFF828814A49EB6AAF4217D0D5F802
:1008200024C0C7F824C0CCF8207058F823C0AC45C9
:1008300029D148F82370D1F800C0BCF1000F22D0B4
:1008400000FA03F72CEA070CC1F800C01BE0E346EE
:1008500048F823C0DFF8ECC000FA03F7DCF80030FA
:10086000BB43CCF80030D1F800C0BCF1000F03D07E
:100870002CEA070CC1F800C073B393FAA3F3B3FAE0
:1008800083F3CAF80030D9F800304F469D422AD190
:10089000DAF8005058F825303B600B68CBB1166889
:1008A000761C166084F31088EFF31084166872B615
:1008B000761E166093FAA3F6B6FA86F658F826C0A6
:1008C000DCF83C80A84504D8B0408343C9F800C098
:1008D0000B6084F310880CE02021CAF80010C9F8DE
:1008E00000B0F6E7FFE784F31088D9F800008642ED
:1008F00006D01068002803D1BDE8F05F00F002B810
:10090000BDE8F09F10494FF080500860EFF305807C
:10091000002807D1EFF3108010F0010F72B662B615
:1009200000D072B67047000054000020AC000020D8
:1009300070000020580000206C000020280A0020D1
:10094000680000206400002004ED00E0104800680A
:10095000EFF310810F4B002272B61A60A8B1026B40
:100960009AB90D4BC26982611A60036A83420CD046
:10097000C26AC06B824208D1084840F82230084A57
:10098000126850F82200074A106081F310887047FF
:100990005400002080000020AC000020280A002025
:1009A0006C00002058000020EFF31080044972B65C
:1009B0000A68521C0A6080F31088024800F09CB854
:1009C00070000020280B002070B5174C86B0002561
:1009D000256025636560656180211448256200F00B
:1009E00008FA1248A06020618030E060B430606294
:1009F0004FF48060C4E90A050D4EE06A0290CDE92B
:100A000003050595D4E90901CDE9000107483346FE
:100A1000084A09A18030FFF723FE0028EDD1A56127
:100A2000E56106B070BD00007C000020A80A00202F
:100A30004D495441A50C000853797374656D2054D9
:100A4000696D65722054687265616400026922F004
:100A50000702A2F144026FF0020313604FF000039B
:100A600053609360D360136153619361D3611362E8
:100A700053629362D362136353634FF0FF33936304
:100A8000D1634FF08073136482607047174810B5CC
:100A90000468EFF31080D4F8AC2072B680F31088AD
:100AA00012B1002120469047D4E911108847104820
:100AB000016809B120468847EFF310800121D4F87E
:100AC000AC202163A1630021E1640A4972B60B687E
:100AD0005B1C0B6080F3108812B101212046904707
:100AE0002046BDE81040FFF76FBE00005400002014
:100AF00074000020700000202DE9F0410446EFF35F
:100B0000108572B6406E002620B104F14C0000F052
:100B100051F900E0E664374A1068401E1060A06B8F
:100B200003210028344B206B06D0012809D002286D
:100B300007D0606BF0B302E018B1606B78B1C4E924
:100B40000C162E48006885F31088196888423DD03D
:100B5000106800283AD1BDE8F04100F039B82663AA
:100B6000274EE16A56F8210028B1416A0C624462BE
:100B7000C4E90801E5E746F82140224E2462646298
:100B80000120D6F800C000FA01F74CEA070CC6F8BD
:100B900000C01D4E3768B942D3D231601E6886B19D
:100BA000F76B8F42CDD9F16A8F4206D08840174942
:100BB0000E6800E007E006430E601C6085F31088B5
:100BC000C6E71C60BDE7A6632663BAE7BDE8F0810F
:100BD0000F494FF080500860EFF30580002807D1DF
:100BE000EFF3108010F0010F72B662B600D072B64B
:100BF00070470000700000205800002054000020C2
:100C0000280A0020640000206C00002068000020FA
:100C100004ED00E0EFF31082016B72B6042907D0F7
:100C2000836ED0F8B01082F31088002B08D01847DC
:100C300004490B685B1C0B6082F31088FFF75CBFF4
:100C40007047000070000020016800291FD04A1C76
:100C50001DD08269002A1AD1202901D91F2100E064
:100C6000491E0D4A126802EB81010C4A126891423A
:100C700005D3891A0A4A8910126802EB81010A68B1
:100C800032B1536918615061C0E904238161704732
:100C9000006140610860F9E78C00002088000020B6
:100CA000840000202DE9FC5F3A494FF0000B884298
:100CB0006ED1DFF8E4A0DFF8E490DFF8E480394F8C
:100CC000002500BFEFF31080D9F800104A4672B635
:100CD0000B6800930BB1C3F818D020C11160DAF88B
:100CE0000030994203D130490968C9F800103D60CD
:100CF00080F3108833E020690195844201D100958A
:100D000005E0626942611061C0F818D00090206867
:100D1000202803D920380022206005E0D4E90220F1
:100D200083466068206020B101A82461A06101941D
:100D300000E0A561C8F8004081F310880AB1584668
:100D40009047EFF31086C8F8005072B60198A042A1
:100D500003D12046A561FFF777FF86F31088EFF3F4
:100D60001081009C72B6002CC5D1386810B181F397
:100D70001088A7E70D4803220263012282630C4A10
:100D800013685B1C136081F31088FFF71DFD99E762
:100D9000BDE8FC9F4D495441880000208C00002094
:100DA0009C0000209000002084000020280B0020E0
:100DB0007000002010B58169002911D0026900245B
:100DC000904204D10A68824209D10C6007E043696D
:100DD00053611A610B68834201D191610A60846199
:100DE00010BD02F0FF0343EA032242EA024200F090
:100DF0002CB84FF0000200B51346944696462039B1
:100E000022BFA0E80C50A0E80C50B1F12001BFF4C3
:100E1000F7AF090728BFA0E80C5048BF0CC05DF829
:100E200004EB890028BF40F8042B08BF704748BF77
:100E300020F8022B11F0804F18BF00F8012B7047EB
:100E40007047704770474FF000020429C0F01280CD
:100E500010F0030C3FF4CFAFCCF1040CBCF1020F47
:100E600018BF00F8012BA8BF20F8022BA1EB0C0142
:100E7000FFF7C1BF5FEAC17C24BF00F8012B00F877
:100E8000012B48BF00F8012B7047754600F02CF885
:100E9000AE4605006946534620F00700854618B067
:100EA00020B5FFF7CBF9BDE820404FF000064FF02A
:100EB00000074FF000084FF0000B21F00701AC468F
:100EC000ACE8C009ACE8C009ACE8C009ACE8C009AE
:100ED0008D46704710B50446AFF300802046BDE84C
:100EE0001040FFF74AB9000000487047DC0F0020AF
:100EF00001491820ABBEFEE7260002007047000043
:100F00004016002089010008F7010008DF010008F1
:100F100000000000000000000000000000000000D1
:100F2000000000000000000000000000E1010008D7
:100F3000F90100080000000081020008EB01000830
:100F4000E3010008E3010008E3010008E3010008F1
:100F500030B503460C46002100E0491C585C655C36
:100F6000A84201D19142F8DB914201D1002030BD6D
:100F70000120FCE72DE9F04106460F4613463046B6
:100F800000F0A7F88046A8EB0304002501E0641CEC
:100F90006D1C305D795D884201D14445F7DB9D428F
:100FA00002D10020BDE8F0810120FBE72DE9F041EE
:100FB000024600250026002000230024002791F887
:100FC00003C00CF00F0591F803C00CF0100CBCF13D
:100FD000000F03D091F802C04CEA050591F800C05B
:100FE000BCF1000F31D0146800202BE04FF0010C51
:100FF0000CFA00F3B1F800C00CEA03069E4220D1BF
:1010000083004FF00F0C0CFA03F7BC4305FA03FC06
:101010004CEA040491F803C0BCF1280F06D14FF04C
:10102000010C0CFA00FCC2F814C00AE091F803C0ED
:10103000BCF1480F05D14FF0010C0CFA00FCC2F8CE
:1010400010C0401C0828D1D31460B1F800C0BCF116
:10105000FF0F34DD546800202EE000F1080C4FF043
:10106000010808FA0CF3B1F800C00CEA03069E422E
:1010700021D183004FF00F0C0CFA03F7BC4305FAA3
:1010800003FC4CEA040491F803C0BCF1280F05D11D
:1010900000F1080C08FA0CF8C2F8148091F803C0AB
:1010A000BCF1480F07D100F1080C4FF0010808FA15
:1010B0000CF8C2F81080401C0828CED35460BDE85C
:1010C000F0814FF6FF710180022181700421C1700F
:1010D00070470146002000E0401C0A5C002AFBD15A
:1010E000704700007BE03E480068012877D13D480A
:1010F000FFF7EFFF0546092D33D104223AA1394805
:10110000FFF726FF002828D1032239A13548FFF731
:1011100031FF10BB334840793038324909793039D2
:1011200001EB810100EB4104002C12DB072C10DCE9
:10113000204600F011FA2FA000F064FB294908793D
:1011400000F03EFB2749487900F03AFB00F052FBE3
:101150003FE02CA000F042FB3BE02AA000F03EFB69
:1011600037E00A2D32D104221FA11E48FFF7F0FEFE
:1011700040BB042227A11B48FFF7FCFE10BB194807
:101180004079303817490979303901EB810100EB9A
:101190004104002C12DB072C10DC204600F0D2F9B1
:1011A0001EA000F02FFB0F49087900F009FB0D4944
:1011B000487900F005FB00F01DFB0AE011A000F0EB
:1011C0000DFB06E00FA000F009FB02E00DA000F00F
:1011D00005FB0020024908600120FFF761F982E762
:1011E00000000020180A00204C45442000000000A8
:1011F000204F4E005475726E206F6E204C45442077
:1012000000000000756E6B6E6F776E20636F6D6D02
:10121000616E6400204F4646000000005475726EF7
:10122000206F6666204C45442000000038B501213F
:10123000042000F02BF80121102000F027F80024F2
:101240000FE00120A04080B2ADF8000010208DF822
:10125000030003208DF8020069460A48FFF7A6FE46
:10126000641C072CEDDB4FF40050ADF8000010209B
:101270008DF8030003208DF8020069460248FFF74D
:1012800095FE38BD000801400010014029B1064A12
:1012900092690243044B9A6104E0034A92698243D3
:1012A000014B9A61704700000010024030B50021E8
:1012B0000022002400232D4D6D6805F00C0121B1A2
:1012C000042905D0082923D105E0294D056022E035
:1012D000274D05601FE0254D6D6805F47012234D04
:1012E0006D6805F48034022505EB92421CB9214D4E
:1012F000554305600BE01D4D6D6805F400351DB1CB
:101300001C4D5543056002E0194D5543056002E050
:10131000174D056000BF00BF144D6D6805F0F0016A
:101320000909154D6B5C0568DD4045600F4D6D6822
:1013300005F4E061090A104D6B5C4568DD4085608D
:101340000A4D6D6805F46051C90A0B4D6B5C456828
:10135000DD40C560054D6D6805F44041890B074DC2
:101360006B5CC568B5FBF3F5056130BD001002404C
:1013700000127A0000093D00040000201400002043
:1013800000252AE040F22551144800F0FBF808B38C
:10139000124800F0B3F9C4B20F2D07DA2846691CD1
:1013A0008DB20F490C54204600F00AFA0D2C09D1D9
:1013B0000021681E0A4A115400F01CFA0025012081
:1013C000084908600F2D05D100F014FA06A000F0BE
:1013D00005FA00250120FFF763F8D3E70038014044
:1013E000180A002000000020636F6D6D616E64209C
:1013F000746F6F206C6F6E670000000010B500F016
:1014000001F810BD0CB50020019000903348006831
:1014100040F480303149086000BF3048006800F473
:10142000003000900198401C0190009818B9019874
:10143000B0F5A06FF1D12948006800F4003010B178
:101440000120009001E0002000900098012843D185
:101450002348006840F010002149086008460068F1
:1014600020F0070008600846006840F002000860AD
:101470001A4840681949486008464068486008466C
:10148000406840F4806048600846406820F47C1062
:1014900048600846406840F4E81048600846006824
:1014A00040F08070086000BF0C48006800F00070D9
:1014B0000028F9D00948406820F003000749486037
:1014C0000846406840F00200486000BF034840689A
:1014D00000F00C000828F9D10CBD000000100240FB
:1014E0000020024010B51348006840F00100114987
:1014F000086008464068104908400E4948600846A0
:1015000000680E4908400B4908600846006820F44E
:10151000802008600846406820F4FE0048604FF4D0
:101520001F008860FFF76AFF4FF000600449086001
:1015300010BD0000001002400000FFF8FFFFF6FEA3
:1015400008ED00E003490968012282409143014A05
:10155000116070470C08014003490968012282406C
:101560001143014A116070470C08014021B1828982
:1015700042F40052828104E082894DF6FF731A40E2
:101580008281704770B502460024002300250020A8
:1015900040F66A16B14200D100BFC1F3421501F016
:1015A0001F03012606FA03F3012D02D19689334069
:1015B00006E0022D02D1168A334001E0968A3340BC
:1015C0000C12012606FA04F41688344013B10CB14B
:1015D000012000E0002070BDF0B503460024002685
:1015E0000025002040F66A17B94200D100BF184616
:1015F000C1F3421401F01F06012707FA06F5012C7A
:1016000001D10C3004E0022C01D1103000E0143084
:101610001AB107682F43076002E00768AF4307600D
:10162000F0BD00002DE9F04786B005460E460024C7
:10163000A24600BFA1460027B08900B100BF2F46D7
:101640002C8A4CF6FF700440F08804432C82AC894D
:101650004EF6F3100440B08831890843718908437D
:101660000443AC81AC8A4FF6FF400440B089044388
:10167000AC8201A8FFF71AFE1F48874202D1DDF8AD
:1016800010A001E0DDF80CA0A88900F4004040B1F2
:101690000AEBCA0000EB0A1031684900B0FBF1F810
:1016A00007E00AEBCA0000EB0A1031688900B0FBC2
:1016B000F1F86420B8FBF0F004012009642101FB7B
:1016C0001089A88900F4004040B1322000EBC90025
:1016D000B0FBF1F000F00700044308E0322000EB1B
:1016E00009106421B0FBF1F000F00F0004432C81DD
:1016F00006B0BDE8F0870000003801400146888848
:10170000C0F3080070474FF416510160002181803A
:10171000C18001810C21418100218181704700003D
:1017200000B585B001218803FFF7B0FD0121042039
:10173000FFF7ACFD04A8FFF7C4FC4FF40070ADF850
:10174000100018208DF8130002208DF8120004A953
:101750001948FFF72BFC4FF48060ADF8100004200F
:101760008DF8130002208DF8120004A91248FFF72B
:101770001DFC6846FFF7C7FF4FF41650009000208D
:10178000ADF80400ADF80600ADF80800ADF80C00A7
:101790000C20ADF80A0069460848FFF743FF012214
:1017A00040F225510548FFF717FF01210348FFF7D5
:1017B000DDFE05B000BD000000080140003801401A
:1017C00000BF0549098801F040010029F9D002490C
:1017D000091D0880704700000038014010B504461C
:1017E000204600F00FF802A000F00CF810BD000039
:1017F0000D0A000000B502A000F004F800BD0000D2
:101800000D0A000010B50246002304E019465B1CD7
:10181000505CFFF7D5FFD05C0028F7D110BD10B5A4
:10182000FFF704FDFFF77CFFFEF7FEFD002010BD73
:1018300010B588B00446B42001210823CDE9033156
:10184000CDE9051089020F4ACDE90113009200236A
:101850000D4A0EA11048FEF75FFEB42001211023AF
:10186000CDE90331CDE9051089020C4ACDE9011318
:10187000009200230A4A0BA10D48FEF74DFE08B066
:1018800010BD000018020020811300085265636536
:10189000697665434D440000B00000201806002022
:1018A000E510000848616E646C65434D440000001B
:1018B00064010020D418000800000020B0000000DF
:1018C0002801000884190008B000002090190000C9
:1018D00044010008000000000000000001020304B1
:1018E00001020304060708090204060800000000BC
:1018F00000000000000000000000000000000000E8
:1019000000000000000000000000000000000000D7
:1019100000000000000000000000000000000000C7
:10192000F0F0F0F0000000000000000000000000F7
:1019300000000000000000000000000000000000A7
:101940000000000000000000000000000000000097
:101950000000000000000000000000000000000087
:101960000000000000000000000000000000000077
:101970000000000000000000000000000000000067
:041980000000000063
:040000050800018965
:00000001FF
